{
  "_format": "hh-sol-artifact-1",
  "contractName": "PaymentContract",
  "sourceName": "contracts/Payment.sol",
  "abi": [
    {
      "inputs": [
        {
          "internalType": "address",
          "name": "_cropNFTAddress",
          "type": "address"
        }
      ],
      "stateMutability": "nonpayable",
      "type": "constructor"
    },
    {
      "inputs": [],
      "name": "ReentrancyGuardReentrantCall",
      "type": "error"
    },
    {
      "anonymous": false,
      "inputs": [
        {
          "indexed": true,
          "internalType": "uint256",
          "name": "tokenId",
          "type": "uint256"
        },
        {
          "indexed": true,
          "internalType": "address",
          "name": "seller",
          "type": "address"
        },
        {
          "indexed": false,
          "internalType": "uint256",
          "name": "price",
          "type": "uint256"
        }
      ],
      "name": "ListedForSale",
      "type": "event"
    },
    {
      "anonymous": false,
      "inputs": [
        {
          "indexed": true,
          "internalType": "uint256",
          "name": "tokenId",
          "type": "uint256"
        },
        {
          "indexed": true,
          "internalType": "address",
          "name": "seller",
          "type": "address"
        }
      ],
      "name": "SaleCancelled",
      "type": "event"
    },
    {
      "anonymous": false,
      "inputs": [
        {
          "indexed": true,
          "internalType": "uint256",
          "name": "tokenId",
          "type": "uint256"
        },
        {
          "indexed": true,
          "internalType": "address",
          "name": "buyer",
          "type": "address"
        },
        {
          "indexed": true,
          "internalType": "address",
          "name": "seller",
          "type": "address"
        },
        {
          "indexed": false,
          "internalType": "uint256",
          "name": "price",
          "type": "uint256"
        }
      ],
      "name": "Sold",
      "type": "event"
    },
    {
      "inputs": [
        {
          "internalType": "uint256",
          "name": "tokenId",
          "type": "uint256"
        }
      ],
      "name": "cancelSale",
      "outputs": [],
      "stateMutability": "nonpayable",
      "type": "function"
    },
    {
      "inputs": [],
      "name": "cropNFT",
      "outputs": [
        {
          "internalType": "contract IERC721",
          "name": "",
          "type": "address"
        }
      ],
      "stateMutability": "view",
      "type": "function"
    },
    {
      "inputs": [
        {
          "internalType": "uint256",
          "name": "tokenId",
          "type": "uint256"
        },
        {
          "internalType": "uint256",
          "name": "price",
          "type": "uint256"
        }
      ],
      "name": "listForSale",
      "outputs": [],
      "stateMutability": "nonpayable",
      "type": "function"
    },
    {
      "inputs": [
        {
          "internalType": "uint256",
          "name": "tokenId",
          "type": "uint256"
        }
      ],
      "name": "purchase",
      "outputs": [],
      "stateMutability": "payable",
      "type": "function"
    },
    {
      "inputs": [
        {
          "internalType": "uint256",
          "name": "",
          "type": "uint256"
        }
      ],
      "name": "sales",
      "outputs": [
        {
          "internalType": "address payable",
          "name": "seller",
          "type": "address"
        },
        {
          "internalType": "uint256",
          "name": "price",
          "type": "uint256"
        },
        {
          "internalType": "bool",
          "name": "isForSale",
          "type": "bool"
        }
      ],
      "stateMutability": "view",
      "type": "function"
    },
    {
      "inputs": [],
      "name": "withdraw",
      "outputs": [],
      "stateMutability": "nonpayable",
      "type": "function"
    }
  ],
  "bytecode": "0x60a06040523480156200001157600080fd5b506040516200124d3803806200124d8339818101604052810190620000379190620000e4565b60016000819055508073ffffffffffffffffffffffffffffffffffffffff1660808173ffffffffffffffffffffffffffffffffffffffff16815250505062000116565b600080fd5b600073ffffffffffffffffffffffffffffffffffffffff82169050919050565b6000620000ac826200007f565b9050919050565b620000be816200009f565b8114620000ca57600080fd5b50565b600081519050620000de81620000b3565b92915050565b600060208284031215620000fd57620000fc6200007a565b5b60006200010d84828501620000cd565b91505092915050565b608051611106620001476000396000818161036a015281816103ad015281816104f701526107f901526111066000f3fe6080604052600436106100555760003560e01c80633ccfd60b1461005a578063b5f522f714610071578063bd94b005146100b0578063e2e9ae53146100d9578063e80d7fec14610104578063efef39a11461012d575b600080fd5b34801561006657600080fd5b5061006f610149565b005b34801561007d57600080fd5b5061009860048036038101906100939190610a31565b6101a2565b6040516100a793929190610ac9565b60405180910390f35b3480156100bc57600080fd5b506100d760048036038101906100d29190610a31565b6101f9565b005b3480156100e557600080fd5b506100ee610368565b6040516100fb9190610b5f565b60405180910390f35b34801561011057600080fd5b5061012b60048036038101906101269190610b7a565b61038c565b005b61014760048036038101906101429190610a31565b6106fb565b005b6101516109a6565b3373ffffffffffffffffffffffffffffffffffffffff166108fc479081150290604051600060405180830381858888f19350505050158015610197573d6000803e3d6000fd5b506101a06109ec565b565b60016020528060005260406000206000915090508060000160009054906101000a900473ffffffffffffffffffffffffffffffffffffffff16908060010154908060020160009054906101000a900460ff16905083565b6102016109a6565b60006001600083815260200190815260200160002090503373ffffffffffffffffffffffffffffffffffffffff168160000160009054906101000a900473ffffffffffffffffffffffffffffffffffffffff1673ffffffffffffffffffffffffffffffffffffffff16146102aa576040517f08c379a00000000000000000000000000000000000000000000000000000000081526004016102a190610c3d565b60405180910390fd5b8060020160009054906101000a900460ff166102fb576040517f08c379a00000000000000000000000000000000000000000000000000000000081526004016102f290610ca9565b60405180910390fd5b60008160020160006101000a81548160ff0219169083151502179055503373ffffffffffffffffffffffffffffffffffffffff16827fd9e530acb8429c8e5337d9d3230e4cc7d742e32c2fc8d76608c19f2e1701ed0460405160405180910390a3506103656109ec565b50565b7f000000000000000000000000000000000000000000000000000000000000000081565b6103946109a6565b3373ffffffffffffffffffffffffffffffffffffffff167f000000000000000000000000000000000000000000000000000000000000000073ffffffffffffffffffffffffffffffffffffffff16636352211e846040518263ffffffff1660e01b81526004016104049190610cc9565b602060405180830381865afa158015610421573d6000803e3d6000fd5b505050506040513d601f19601f820116820180604052508101906104459190610d22565b73ffffffffffffffffffffffffffffffffffffffff161461049b576040517f08c379a000000000000000000000000000000000000000000000000000000000815260040161049290610dc1565b60405180910390fd5b600081116104de576040517f08c379a00000000000000000000000000000000000000000000000000000000081526004016104d590610e2d565b60405180910390fd5b3073ffffffffffffffffffffffffffffffffffffffff167f000000000000000000000000000000000000000000000000000000000000000073ffffffffffffffffffffffffffffffffffffffff1663081812fc846040518263ffffffff1660e01b815260040161054e9190610cc9565b602060405180830381865afa15801561056b573d6000803e3d6000fd5b505050506040513d601f19601f8201168201806040525081019061058f9190610d22565b73ffffffffffffffffffffffffffffffffffffffff16146105e5576040517f08c379a00000000000000000000000000000000000000000000000000000000081526004016105dc90610ebf565b60405180910390fd5b60405180606001604052803373ffffffffffffffffffffffffffffffffffffffff168152602001828152602001600115158152506001600084815260200190815260200160002060008201518160000160006101000a81548173ffffffffffffffffffffffffffffffffffffffff021916908373ffffffffffffffffffffffffffffffffffffffff1602179055506020820151816001015560408201518160020160006101000a81548160ff0219169083151502179055509050503373ffffffffffffffffffffffffffffffffffffffff16827f334568018f6ef8483e1b5b8278d15bf9f5bca3a23ee36a2b54e546f608ae89be836040516106e79190610cc9565b60405180910390a36106f76109ec565b5050565b6107036109a6565b60006001600083815260200190815260200160002090508060020160009054906101000a900460ff1661076b576040517f08c379a000000000000000000000000000000000000000000000000000000000815260040161076290610f2b565b60405180910390fd5b806001015434146107b1576040517f08c379a00000000000000000000000000000000000000000000000000000000081526004016107a890610f97565b60405180910390fd5b60008160000160009054906101000a900473ffffffffffffffffffffffffffffffffffffffff16905060008260020160006101000a81548160ff0219169083151502179055507f000000000000000000000000000000000000000000000000000000000000000073ffffffffffffffffffffffffffffffffffffffff166342842e0e8233866040518463ffffffff1660e01b815260040161085493929190610fe7565b600060405180830381600087803b15801561086e57600080fd5b505af1158015610882573d6000803e3d6000fd5b5050505060008173ffffffffffffffffffffffffffffffffffffffff16346040516108ac9061104f565b60006040518083038185875af1925050503d80600081146108e9576040519150601f19603f3d011682016040523d82523d6000602084013e6108ee565b606091505b5050905080610932576040517f08c379a0000000000000000000000000000000000000000000000000000000008152600401610929906110b0565b60405180910390fd5b8173ffffffffffffffffffffffffffffffffffffffff163373ffffffffffffffffffffffffffffffffffffffff16857f23f50d55776d8003622a982ade45a6c7f083116c8dbbcd980f59942f440badb1346040516109909190610cc9565b60405180910390a45050506109a36109ec565b50565b6002600054036109e2576040517f3ee5aeb500000000000000000000000000000000000000000000000000000000815260040160405180910390fd5b6002600081905550565b6001600081905550565b600080fd5b6000819050919050565b610a0e816109fb565b8114610a1957600080fd5b50565b600081359050610a2b81610a05565b92915050565b600060208284031215610a4757610a466109f6565b5b6000610a5584828501610a1c565b91505092915050565b600073ffffffffffffffffffffffffffffffffffffffff82169050919050565b6000610a8982610a5e565b9050919050565b610a9981610a7e565b82525050565b610aa8816109fb565b82525050565b60008115159050919050565b610ac381610aae565b82525050565b6000606082019050610ade6000830186610a90565b610aeb6020830185610a9f565b610af86040830184610aba565b949350505050565b6000819050919050565b6000610b25610b20610b1b84610a5e565b610b00565b610a5e565b9050919050565b6000610b3782610b0a565b9050919050565b6000610b4982610b2c565b9050919050565b610b5981610b3e565b82525050565b6000602082019050610b746000830184610b50565b92915050565b60008060408385031215610b9157610b906109f6565b5b6000610b9f85828601610a1c565b9250506020610bb085828601610a1c565b9150509250929050565b600082825260208201905092915050565b7f596f7520617265206e6f74207468652073656c6c6572206f662074686973204e60008201527f4654000000000000000000000000000000000000000000000000000000000000602082015250565b6000610c27602283610bba565b9150610c3282610bcb565b604082019050919050565b60006020820190508181036000830152610c5681610c1a565b9050919050565b7f4e4654206973206e6f7420666f722073616c6500000000000000000000000000600082015250565b6000610c93601383610bba565b9150610c9e82610c5d565b602082019050919050565b60006020820190508181036000830152610cc281610c86565b9050919050565b6000602082019050610cde6000830184610a9f565b92915050565b6000610cef82610a5e565b9050919050565b610cff81610ce4565b8114610d0a57600080fd5b50565b600081519050610d1c81610cf6565b92915050565b600060208284031215610d3857610d376109f6565b5b6000610d4684828501610d0d565b91505092915050565b7f596f7520617265206e6f7420746865206f776e6572206f662074686973204e4660008201527f5400000000000000000000000000000000000000000000000000000000000000602082015250565b6000610dab602183610bba565b9150610db682610d4f565b604082019050919050565b60006020820190508181036000830152610dda81610d9e565b9050919050565b7f5072696365206d7573742062652067726561746572207468616e207a65726f00600082015250565b6000610e17601f83610bba565b9150610e2282610de1565b602082019050919050565b60006020820190508181036000830152610e4681610e0a565b9050919050565b7f436f6e7472616374206e6f7420617070726f76656420746f207472616e73666560008201527f722074686973204e465400000000000000000000000000000000000000000000602082015250565b6000610ea9602a83610bba565b9150610eb482610e4d565b604082019050919050565b60006020820190508181036000830152610ed881610e9c565b9050919050565b7f54686973204e4654206973206e6f7420666f722073616c650000000000000000600082015250565b6000610f15601883610bba565b9150610f2082610edf565b602082019050919050565b60006020820190508181036000830152610f4481610f08565b9050919050565b7f496e636f727265637420616d6f756e74206f66204d415449432073656e740000600082015250565b6000610f81601e83610bba565b9150610f8c82610f4b565b602082019050919050565b60006020820190508181036000830152610fb081610f74565b9050919050565b6000610fc282610b2c565b9050919050565b610fd281610fb7565b82525050565b610fe181610ce4565b82525050565b6000606082019050610ffc6000830186610fc9565b6110096020830185610fd8565b6110166040830184610a9f565b949350505050565b600081905092915050565b50565b600061103960008361101e565b915061104482611029565b600082019050919050565b600061105a8261102c565b9150819050919050565b7f5061796d656e74207472616e73666572206661696c6564000000000000000000600082015250565b600061109a601783610bba565b91506110a582611064565b602082019050919050565b600060208201905081810360008301526110c98161108d565b905091905056fea2646970667358221220ebb1b25f9305a141394e315c59dae2b5cb1bdab7de4460313ffee50c72f5bcc964736f6c63430008180033",
  "linkReferences": {},
  "deployedLinkReferences": {}
}