{
  "_format": "hh-sol-artifact-1",
  "contractName": "CropNFT",
  "sourceName": "contracts/CropNFT.sol",
  "abi": [
    {
      "inputs": [],
      "stateMutability": "nonpayable",
      "type": "constructor"
    },
    {
      "inputs": [
        {
          "internalType": "address",
          "name": "sender",
          "type": "address"
        },
        {
          "internalType": "uint256",
          "name": "tokenId",
          "type": "uint256"
        },
        {
          "internalType": "address",
          "name": "owner",
          "type": "address"
        }
      ],
      "name": "ERC721IncorrectOwner",
      "type": "error"
    },
    {
      "inputs": [
        {
          "internalType": "address",
          "name": "operator",
          "type": "address"
        },
        {
          "internalType": "uint256",
          "name": "tokenId",
          "type": "uint256"
        }
      ],
      "name": "ERC721InsufficientApproval",
      "type": "error"
    },
    {
      "inputs": [
        {
          "internalType": "address",
          "name": "approver",
          "type": "address"
        }
      ],
      "name": "ERC721InvalidApprover",
      "type": "error"
    },
    {
      "inputs": [
        {
          "internalType": "address",
          "name": "operator",
          "type": "address"
        }
      ],
      "name": "ERC721InvalidOperator",
      "type": "error"
    },
    {
      "inputs": [
        {
          "internalType": "address",
          "name": "owner",
          "type": "address"
        }
      ],
      "name": "ERC721InvalidOwner",
      "type": "error"
    },
    {
      "inputs": [
        {
          "internalType": "address",
          "name": "receiver",
          "type": "address"
        }
      ],
      "name": "ERC721InvalidReceiver",
      "type": "error"
    },
    {
      "inputs": [
        {
          "internalType": "address",
          "name": "sender",
          "type": "address"
        }
      ],
      "name": "ERC721InvalidSender",
      "type": "error"
    },
    {
      "inputs": [
        {
          "internalType": "uint256",
          "name": "tokenId",
          "type": "uint256"
        }
      ],
      "name": "ERC721NonexistentToken",
      "type": "error"
    },
    {
      "inputs": [
        {
          "internalType": "address",
          "name": "owner",
          "type": "address"
        }
      ],
      "name": "OwnableInvalidOwner",
      "type": "error"
    },
    {
      "inputs": [
        {
          "internalType": "address",
          "name": "account",
          "type": "address"
        }
      ],
      "name": "OwnableUnauthorizedAccount",
      "type": "error"
    },
    {
      "inputs": [],
      "name": "ReentrancyGuardReentrantCall",
      "type": "error"
    },
    {
      "anonymous": false,
      "inputs": [
        {
          "indexed": true,
          "internalType": "address",
          "name": "owner",
          "type": "address"
        },
        {
          "indexed": true,
          "internalType": "address",
          "name": "approved",
          "type": "address"
        },
        {
          "indexed": true,
          "internalType": "uint256",
          "name": "tokenId",
          "type": "uint256"
        }
      ],
      "name": "Approval",
      "type": "event"
    },
    {
      "anonymous": false,
      "inputs": [
        {
          "indexed": true,
          "internalType": "address",
          "name": "owner",
          "type": "address"
        },
        {
          "indexed": true,
          "internalType": "address",
          "name": "operator",
          "type": "address"
        },
        {
          "indexed": false,
          "internalType": "bool",
          "name": "approved",
          "type": "bool"
        }
      ],
      "name": "ApprovalForAll",
      "type": "event"
    },
    {
      "anonymous": false,
      "inputs": [
        {
          "indexed": false,
          "internalType": "uint256",
          "name": "_fromTokenId",
          "type": "uint256"
        },
        {
          "indexed": false,
          "internalType": "uint256",
          "name": "_toTokenId",
          "type": "uint256"
        }
      ],
      "name": "BatchMetadataUpdate",
      "type": "event"
    },
    {
      "anonymous": false,
      "inputs": [
        {
          "indexed": true,
          "internalType": "uint256",
          "name": "tokenId",
          "type": "uint256"
        },
        {
          "indexed": true,
          "internalType": "address",
          "name": "farmer",
          "type": "address"
        },
        {
          "indexed": false,
          "internalType": "string",
          "name": "cropType",
          "type": "string"
        }
      ],
      "name": "CropMinted",
      "type": "event"
    },
    {
      "anonymous": false,
      "inputs": [
        {
          "indexed": true,
          "internalType": "address",
          "name": "farmer",
          "type": "address"
        },
        {
          "indexed": false,
          "internalType": "bool",
          "name": "verified",
          "type": "bool"
        }
      ],
      "name": "FarmerVerified",
      "type": "event"
    },
    {
      "anonymous": false,
      "inputs": [
        {
          "indexed": true,
          "internalType": "uint256",
          "name": "tokenId",
          "type": "uint256"
        },
        {
          "indexed": false,
          "internalType": "int256",
          "name": "latitude",
          "type": "int256"
        },
        {
          "indexed": false,
          "internalType": "int256",
          "name": "longitude",
          "type": "int256"
        }
      ],
      "name": "LocationUpdated",
      "type": "event"
    },
    {
      "anonymous": false,
      "inputs": [
        {
          "indexed": false,
          "internalType": "uint256",
          "name": "_tokenId",
          "type": "uint256"
        }
      ],
      "name": "MetadataUpdate",
      "type": "event"
    },
    {
      "anonymous": false,
      "inputs": [
        {
          "indexed": true,
          "internalType": "address",
          "name": "previousOwner",
          "type": "address"
        },
        {
          "indexed": true,
          "internalType": "address",
          "name": "newOwner",
          "type": "address"
        }
      ],
      "name": "OwnershipTransferred",
      "type": "event"
    },
    {
      "anonymous": false,
      "inputs": [
        {
          "indexed": true,
          "internalType": "address",
          "name": "processor",
          "type": "address"
        },
        {
          "indexed": false,
          "internalType": "bool",
          "name": "certified",
          "type": "bool"
        }
      ],
      "name": "ProcessorCertified",
      "type": "event"
    },
    {
      "anonymous": false,
      "inputs": [
        {
          "indexed": true,
          "internalType": "uint256",
          "name": "tokenId",
          "type": "uint256"
        },
        {
          "indexed": false,
          "internalType": "enum CropNFT.QualityGrade",
          "name": "grade",
          "type": "uint8"
        },
        {
          "indexed": true,
          "internalType": "address",
          "name": "grader",
          "type": "address"
        }
      ],
      "name": "QualityGraded",
      "type": "event"
    },
    {
      "anonymous": false,
      "inputs": [
        {
          "indexed": true,
          "internalType": "uint256",
          "name": "tokenId",
          "type": "uint256"
        },
        {
          "indexed": false,
          "internalType": "enum CropNFT.CropStage",
          "name": "stage",
          "type": "uint8"
        },
        {
          "indexed": true,
          "internalType": "address",
          "name": "actor",
          "type": "address"
        }
      ],
      "name": "SupplyChainUpdated",
      "type": "event"
    },
    {
      "anonymous": false,
      "inputs": [
        {
          "indexed": true,
          "internalType": "address",
          "name": "from",
          "type": "address"
        },
        {
          "indexed": true,
          "internalType": "address",
          "name": "to",
          "type": "address"
        },
        {
          "indexed": true,
          "internalType": "uint256",
          "name": "tokenId",
          "type": "uint256"
        }
      ],
      "name": "Transfer",
      "type": "event"
    },
    {
      "inputs": [
        {
          "internalType": "address",
          "name": "to",
          "type": "address"
        },
        {
          "internalType": "uint256",
          "name": "tokenId",
          "type": "uint256"
        }
      ],
      "name": "approve",
      "outputs": [],
      "stateMutability": "nonpayable",
      "type": "function"
    },
    {
      "inputs": [
        {
          "internalType": "uint256",
          "name": "tokenId",
          "type": "uint256"
        },
        {
          "internalType": "address",
          "name": "actor",
          "type": "address"
        },
        {
          "internalType": "bool",
          "name": "authorized",
          "type": "bool"
        }
      ],
      "name": "authorizeActor",
      "outputs": [],
      "stateMutability": "nonpayable",
      "type": "function"
    },
    {
      "inputs": [
        {
          "internalType": "uint256",
          "name": "",
          "type": "uint256"
        },
        {
          "internalType": "address",
          "name": "",
          "type": "address"
        }
      ],
      "name": "authorizedActors",
      "outputs": [
        {
          "internalType": "bool",
          "name": "",
          "type": "bool"
        }
      ],
      "stateMutability": "view",
      "type": "function"
    },
    {
      "inputs": [
        {
          "internalType": "address",
          "name": "owner",
          "type": "address"
        }
      ],
      "name": "balanceOf",
      "outputs": [
        {
          "internalType": "uint256",
          "name": "",
          "type": "uint256"
        }
      ],
      "stateMutability": "view",
      "type": "function"
    },
    {
      "inputs": [
        {
          "internalType": "address",
          "name": "",
          "type": "address"
        }
      ],
      "name": "certifiedProcessors",
      "outputs": [
        {
          "internalType": "bool",
          "name": "",
          "type": "bool"
        }
      ],
      "stateMutability": "view",
      "type": "function"
    },
    {
      "inputs": [
        {
          "internalType": "address",
          "name": "processor",
          "type": "address"
        },
        {
          "internalType": "bool",
          "name": "certified",
          "type": "bool"
        }
      ],
      "name": "certifyProcessor",
      "outputs": [],
      "stateMutability": "nonpayable",
      "type": "function"
    },
    {
      "inputs": [
        {
          "internalType": "uint256",
          "name": "",
          "type": "uint256"
        }
      ],
      "name": "cropData",
      "outputs": [
        {
          "internalType": "string",
          "name": "cropType",
          "type": "string"
        },
        {
          "internalType": "string",
          "name": "variety",
          "type": "string"
        },
        {
          "internalType": "uint256",
          "name": "plantingDate",
          "type": "uint256"
        },
        {
          "internalType": "uint256",
          "name": "harvestDate",
          "type": "uint256"
        },
        {
          "internalType": "address",
          "name": "farmer",
          "type": "address"
        },
        {
          "internalType": "enum CropNFT.QualityGrade",
          "name": "grade",
          "type": "uint8"
        },
        {
          "internalType": "uint256",
          "name": "quantity",
          "type": "uint256"
        },
        {
          "internalType": "string",
          "name": "certifications",
          "type": "string"
        },
        {
          "internalType": "bool",
          "name": "isActive",
          "type": "bool"
        }
      ],
      "stateMutability": "view",
      "type": "function"
    },
    {
      "inputs": [
        {
          "internalType": "uint256",
          "name": "tokenId",
          "type": "uint256"
        }
      ],
      "name": "getApproved",
      "outputs": [
        {
          "internalType": "address",
          "name": "",
          "type": "address"
        }
      ],
      "stateMutability": "view",
      "type": "function"
    },
    {
      "inputs": [
        {
          "internalType": "uint256",
          "name": "tokenId",
          "type": "uint256"
        }
      ],
      "name": "getCropData",
      "outputs": [
        {
          "components": [
            {
              "internalType": "string",
              "name": "cropType",
              "type": "string"
            },
            {
              "internalType": "string",
              "name": "variety",
              "type": "string"
            },
            {
              "internalType": "uint256",
              "name": "plantingDate",
              "type": "uint256"
            },
            {
              "internalType": "uint256",
              "name": "harvestDate",
              "type": "uint256"
            },
            {
              "internalType": "address",
              "name": "farmer",
              "type": "address"
            },
            {
              "internalType": "enum CropNFT.QualityGrade",
              "name": "grade",
              "type": "uint8"
            },
            {
              "internalType": "uint256",
              "name": "quantity",
              "type": "uint256"
            },
            {
              "internalType": "string",
              "name": "certifications",
              "type": "string"
            },
            {
              "internalType": "bool",
              "name": "isActive",
              "type": "bool"
            }
          ],
          "internalType": "struct CropNFT.CropData",
          "name": "",
          "type": "tuple"
        }
      ],
      "stateMutability": "view",
      "type": "function"
    },
    {
      "inputs": [
        {
          "internalType": "uint256",
          "name": "tokenId",
          "type": "uint256"
        }
      ],
      "name": "getCurrentLocation",
      "outputs": [
        {
          "components": [
            {
              "internalType": "int256",
              "name": "latitude",
              "type": "int256"
            },
            {
              "internalType": "int256",
              "name": "longitude",
              "type": "int256"
            },
            {
              "internalType": "string",
              "name": "locationName",
              "type": "string"
            },
            {
              "internalType": "uint256",
              "name": "timestamp",
              "type": "uint256"
            }
          ],
          "internalType": "struct CropNFT.GeoLocation",
          "name": "",
          "type": "tuple"
        }
      ],
      "stateMutability": "view",
      "type": "function"
    },
    {
      "inputs": [
        {
          "internalType": "uint256",
          "name": "tokenId",
          "type": "uint256"
        }
      ],
      "name": "getSupplyChainHistory",
      "outputs": [
        {
          "components": [
            {
              "internalType": "enum CropNFT.CropStage",
              "name": "stage",
              "type": "uint8"
            },
            {
              "internalType": "address",
              "name": "actor",
              "type": "address"
            },
            {
              "internalType": "string",
              "name": "description",
              "type": "string"
            },
            {
              "internalType": "uint256",
              "name": "timestamp",
              "type": "uint256"
            },
            {
              "internalType": "string",
              "name": "ipfsHash",
              "type": "string"
            },
            {
              "components": [
                {
                  "internalType": "int256",
                  "name": "latitude",
                  "type": "int256"
                },
                {
                  "internalType": "int256",
                  "name": "longitude",
                  "type": "int256"
                },
                {
                  "internalType": "string",
                  "name": "locationName",
                  "type": "string"
                },
                {
                  "internalType": "uint256",
                  "name": "timestamp",
                  "type": "uint256"
                }
              ],
              "internalType": "struct CropNFT.GeoLocation",
              "name": "location",
              "type": "tuple"
            }
          ],
          "internalType": "struct CropNFT.SupplyChainEvent[]",
          "name": "",
          "type": "tuple[]"
        }
      ],
      "stateMutability": "view",
      "type": "function"
    },
    {
      "inputs": [
        {
          "internalType": "address",
          "name": "owner",
          "type": "address"
        },
        {
          "internalType": "address",
          "name": "operator",
          "type": "address"
        }
      ],
      "name": "isApprovedForAll",
      "outputs": [
        {
          "internalType": "bool",
          "name": "",
          "type": "bool"
        }
      ],
      "stateMutability": "view",
      "type": "function"
    },
    {
      "inputs": [
        {
          "internalType": "address",
          "name": "farmer",
          "type": "address"
        },
        {
          "internalType": "string",
          "name": "uri",
          "type": "string"
        },
        {
          "internalType": "string",
          "name": "cropType",
          "type": "string"
        },
        {
          "internalType": "string",
          "name": "variety",
          "type": "string"
        },
        {
          "internalType": "uint256",
          "name": "plantingDate",
          "type": "uint256"
        },
        {
          "internalType": "int256",
          "name": "latitude",
          "type": "int256"
        },
        {
          "internalType": "int256",
          "name": "longitude",
          "type": "int256"
        },
        {
          "internalType": "string",
          "name": "locationName",
          "type": "string"
        },
        {
          "internalType": "uint256",
          "name": "quantity",
          "type": "uint256"
        },
        {
          "internalType": "string",
          "name": "certifications",
          "type": "string"
        }
      ],
      "name": "mintCropNFT",
      "outputs": [
        {
          "internalType": "uint256",
          "name": "",
          "type": "uint256"
        }
      ],
      "stateMutability": "nonpayable",
      "type": "function"
    },
    {
      "inputs": [],
      "name": "name",
      "outputs": [
        {
          "internalType": "string",
          "name": "",
          "type": "string"
        }
      ],
      "stateMutability": "view",
      "type": "function"
    },
    {
      "inputs": [],
      "name": "owner",
      "outputs": [
        {
          "internalType": "address",
          "name": "",
          "type": "address"
        }
      ],
      "stateMutability": "view",
      "type": "function"
    },
    {
      "inputs": [
        {
          "internalType": "uint256",
          "name": "tokenId",
          "type": "uint256"
        }
      ],
      "name": "ownerOf",
      "outputs": [
        {
          "internalType": "address",
          "name": "",
          "type": "address"
        }
      ],
      "stateMutability": "view",
      "type": "function"
    },
    {
      "inputs": [],
      "name": "renounceOwnership",
      "outputs": [],
      "stateMutability": "nonpayable",
      "type": "function"
    },
    {
      "inputs": [
        {
          "internalType": "address",
          "name": "to",
          "type": "address"
        },
        {
          "internalType": "string",
          "name": "uri",
          "type": "string"
        }
      ],
      "name": "safeMint",
      "outputs": [
        {
          "internalType": "uint256",
          "name": "",
          "type": "uint256"
        }
      ],
      "stateMutability": "nonpayable",
      "type": "function"
    },
    {
      "inputs": [
        {
          "internalType": "address",
          "name": "from",
          "type": "address"
        },
        {
          "internalType": "address",
          "name": "to",
          "type": "address"
        },
        {
          "internalType": "uint256",
          "name": "tokenId",
          "type": "uint256"
        }
      ],
      "name": "safeTransferFrom",
      "outputs": [],
      "stateMutability": "nonpayable",
      "type": "function"
    },
    {
      "inputs": [
        {
          "internalType": "address",
          "name": "from",
          "type": "address"
        },
        {
          "internalType": "address",
          "name": "to",
          "type": "address"
        },
        {
          "internalType": "uint256",
          "name": "tokenId",
          "type": "uint256"
        },
        {
          "internalType": "bytes",
          "name": "data",
          "type": "bytes"
        }
      ],
      "name": "safeTransferFrom",
      "outputs": [],
      "stateMutability": "nonpayable",
      "type": "function"
    },
    {
      "inputs": [
        {
          "internalType": "address",
          "name": "operator",
          "type": "address"
        },
        {
          "internalType": "bool",
          "name": "approved",
          "type": "bool"
        }
      ],
      "name": "setApprovalForAll",
      "outputs": [],
      "stateMutability": "nonpayable",
      "type": "function"
    },
    {
      "inputs": [
        {
          "internalType": "uint256",
          "name": "tokenId",
          "type": "uint256"
        },
        {
          "internalType": "enum CropNFT.QualityGrade",
          "name": "grade",
          "type": "uint8"
        }
      ],
      "name": "setQualityGrade",
      "outputs": [],
      "stateMutability": "nonpayable",
      "type": "function"
    },
    {
      "inputs": [
        {
          "internalType": "uint256",
          "name": "",
          "type": "uint256"
        },
        {
          "internalType": "uint256",
          "name": "",
          "type": "uint256"
        }
      ],
      "name": "supplyChainHistory",
      "outputs": [
        {
          "internalType": "enum CropNFT.CropStage",
          "name": "stage",
          "type": "uint8"
        },
        {
          "internalType": "address",
          "name": "actor",
          "type": "address"
        },
        {
          "internalType": "string",
          "name": "description",
          "type": "string"
        },
        {
          "internalType": "uint256",
          "name": "timestamp",
          "type": "uint256"
        },
        {
          "internalType": "string",
          "name": "ipfsHash",
          "type": "string"
        },
        {
          "components": [
            {
              "internalType": "int256",
              "name": "latitude",
              "type": "int256"
            },
            {
              "internalType": "int256",
              "name": "longitude",
              "type": "int256"
            },
            {
              "internalType": "string",
              "name": "locationName",
              "type": "string"
            },
            {
              "internalType": "uint256",
              "name": "timestamp",
              "type": "uint256"
            }
          ],
          "internalType": "struct CropNFT.GeoLocation",
          "name": "location",
          "type": "tuple"
        }
      ],
      "stateMutability": "view",
      "type": "function"
    },
    {
      "inputs": [
        {
          "internalType": "bytes4",
          "name": "interfaceId",
          "type": "bytes4"
        }
      ],
      "name": "supportsInterface",
      "outputs": [
        {
          "internalType": "bool",
          "name": "",
          "type": "bool"
        }
      ],
      "stateMutability": "view",
      "type": "function"
    },
    {
      "inputs": [],
      "name": "symbol",
      "outputs": [
        {
          "internalType": "string",
          "name": "",
          "type": "string"
        }
      ],
      "stateMutability": "view",
      "type": "function"
    },
    {
      "inputs": [
        {
          "internalType": "uint256",
          "name": "tokenId",
          "type": "uint256"
        }
      ],
      "name": "tokenURI",
      "outputs": [
        {
          "internalType": "string",
          "name": "",
          "type": "string"
        }
      ],
      "stateMutability": "view",
      "type": "function"
    },
    {
      "inputs": [
        {
          "internalType": "address",
          "name": "from",
          "type": "address"
        },
        {
          "internalType": "address",
          "name": "to",
          "type": "address"
        },
        {
          "internalType": "uint256",
          "name": "tokenId",
          "type": "uint256"
        }
      ],
      "name": "transferFrom",
      "outputs": [],
      "stateMutability": "nonpayable",
      "type": "function"
    },
    {
      "inputs": [
        {
          "internalType": "address",
          "name": "newOwner",
          "type": "address"
        }
      ],
      "name": "transferOwnership",
      "outputs": [],
      "stateMutability": "nonpayable",
      "type": "function"
    },
    {
      "inputs": [
        {
          "internalType": "uint256",
          "name": "tokenId",
          "type": "uint256"
        },
        {
          "internalType": "enum CropNFT.CropStage",
          "name": "stage",
          "type": "uint8"
        },
        {
          "internalType": "string",
          "name": "description",
          "type": "string"
        },
        {
          "internalType": "string",
          "name": "ipfsHash",
          "type": "string"
        },
        {
          "internalType": "int256",
          "name": "latitude",
          "type": "int256"
        },
        {
          "internalType": "int256",
          "name": "longitude",
          "type": "int256"
        },
        {
          "internalType": "string",
          "name": "locationName",
          "type": "string"
        }
      ],
      "name": "updateSupplyChain",
      "outputs": [],
      "stateMutability": "nonpayable",
      "type": "function"
    },
    {
      "inputs": [
        {
          "internalType": "address",
          "name": "",
          "type": "address"
        }
      ],
      "name": "verifiedFarmers",
      "outputs": [
        {
          "internalType": "bool",
          "name": "",
          "type": "bool"
        }
      ],
      "stateMutability": "view",
      "type": "function"
    },
    {
      "inputs": [
        {
          "internalType": "address",
          "name": "farmer",
          "type": "address"
        },
        {
          "internalType": "bool",
          "name": "verified",
          "type": "bool"
        }
      ],
      "name": "verifyFarmer",
      "outputs": [],
      "stateMutability": "nonpayable",
      "type": "function"
    }
  ],
  "bytecode": "0x60806040523480156200001157600080fd5b50336040518060400160405280600781526020017f43726f704e4654000000000000000000000000000000000000000000000000008152506040518060400160405280600481526020017f434e46540000000000000000000000000000000000000000000000000000000081525081600090816200009091906200047a565b508060019081620000a291906200047a565b505050600073ffffffffffffffffffffffffffffffffffffffff168173ffffffffffffffffffffffffffffffffffffffff16036200011a5760006040517f1e4fbdf7000000000000000000000000000000000000000000000000000000008152600401620001119190620005a6565b60405180910390fd5b6200012b816200013a60201b60201c565b506001600881905550620005c3565b6000600760009054906101000a900473ffffffffffffffffffffffffffffffffffffffff16905081600760006101000a81548173ffffffffffffffffffffffffffffffffffffffff021916908373ffffffffffffffffffffffffffffffffffffffff1602179055508173ffffffffffffffffffffffffffffffffffffffff168173ffffffffffffffffffffffffffffffffffffffff167f8be0079c531659141344cd1fd0a4f28419497f9722a3daafe3b4186f6b6457e060405160405180910390a35050565b600081519050919050565b7f4e487b7100000000000000000000000000000000000000000000000000000000600052604160045260246000fd5b7f4e487b7100000000000000000000000000000000000000000000000000000000600052602260045260246000fd5b600060028204905060018216806200028257607f821691505b6020821081036200029857620002976200023a565b5b50919050565b60008190508160005260206000209050919050565b60006020601f8301049050919050565b600082821b905092915050565b600060088302620003027fffffffffffffffffffffffffffffffffffffffffffffffffffffffffffffffff82620002c3565b6200030e8683620002c3565b95508019841693508086168417925050509392505050565b6000819050919050565b6000819050919050565b60006200035b620003556200034f8462000326565b62000330565b62000326565b9050919050565b6000819050919050565b62000377836200033a565b6200038f620003868262000362565b848454620002d0565b825550505050565b600090565b620003a662000397565b620003b38184846200036c565b505050565b5b81811015620003db57620003cf6000826200039c565b600181019050620003b9565b5050565b601f8211156200042a57620003f4816200029e565b620003ff84620002b3565b810160208510156200040f578190505b620004276200041e85620002b3565b830182620003b8565b50505b505050565b600082821c905092915050565b60006200044f600019846008026200042f565b1980831691505092915050565b60006200046a83836200043c565b9150826002028217905092915050565b620004858262000200565b67ffffffffffffffff811115620004a157620004a06200020b565b5b620004ad825462000269565b620004ba828285620003df565b600060209050601f831160018114620004f25760008415620004dd578287015190505b620004e985826200045c565b86555062000559565b601f19841662000502866200029e565b60005b828110156200052c5784890151825560018201915060208501945060208101905062000505565b868310156200054c578489015162000548601f8916826200043c565b8355505b6001600288020188555050505b505050505050565b600073ffffffffffffffffffffffffffffffffffffffff82169050919050565b60006200058e8262000561565b9050919050565b620005a08162000581565b82525050565b6000602082019050620005bd600083018462000595565b92915050565b61517980620005d36000396000f3fe608060405234801561001057600080fd5b50600436106101e55760003560e01c806371472bd71161010f578063c87b56dd116100a2578063e169feaa11610071578063e169feaa146105f7578063e985e9c514610627578063f151042914610657578063f2fde38b14610673576101e5565b8063c87b56dd14610532578063d0870cc014610562578063d204c45e14610597578063de0a5e99146105c7576101e5565b806395d89b41116100de57806395d89b41146104c0578063a22cb465146104de578063b238deb3146104fa578063b88d4fde14610516576101e5565b806371472bd71461044c578063715018a61461047c5780637dd9502b146104865780638da5cb5b146104a2576101e5565b806323b872dd116101875780636352211e116101565780636352211e1461038457806367a2b7ea146103b45780636b9b4a68146103e457806370a082311461041c576101e5565b806323b872dd1461030057806323bb18351461031c57806342842e0e1461034c57806346f7a00c14610368576101e5565b8063081812fc116101c3578063081812fc14610268578063095ea7b3146102985780630c3d272c146102b45780630ed14121146102e4576101e5565b806301ffc9a7146101ea57806306fdde031461021a57806307c6268414610238575b600080fd5b61020460048036038101906101ff9190613977565b61068f565b60405161021191906139bf565b60405180910390f35b6102226106a1565b60405161022f9190613a6a565b60405180910390f35b610252600480360381019061024d9190613aea565b610733565b60405161025f91906139bf565b60405180910390f35b610282600480360381019061027d9190613b4d565b610753565b60405161028f9190613b89565b60405180910390f35b6102b260048036038101906102ad9190613ba4565b61076f565b005b6102ce60048036038101906102c99190613aea565b610785565b6040516102db91906139bf565b60405180910390f35b6102fe60048036038101906102f99190613c09565b6107a5565b005b61031a60048036038101906103159190613c49565b61097e565b005b61033660048036038101906103319190613b4d565b610a80565b6040516103439190613d71565b60405180910390f35b61036660048036038101906103619190613c49565b610c01565b005b610382600480360381019061037d9190613dbf565b610c21565b005b61039e60048036038101906103999190613b4d565b610cd2565b6040516103ab9190613b89565b60405180910390f35b6103ce60048036038101906103c99190613f60565b610ce4565b6040516103db91906140da565b60405180910390f35b6103fe60048036038101906103f99190613b4d565b611259565b6040516104139998979695949392919061416c565b60405180910390f35b61043660048036038101906104319190613aea565b611479565b60405161044391906140da565b60405180910390f35b61046660048036038101906104619190613b4d565b611533565b604051610473919061430e565b60405180910390f35b6104846117e1565b005b6104a0600480360381019061049b9190614355565b6117f5565b005b6104aa611c42565b6040516104b79190613b89565b60405180910390f35b6104c8611c6c565b6040516104d59190613a6a565b60405180910390f35b6104f860048036038101906104f39190613dbf565b611cfe565b005b610514600480360381019061050f919061444b565b611d14565b005b610530600480360381019061052b919061453f565b611ec9565b005b61054c60048036038101906105479190613b4d565b611eee565b6040516105599190613a6a565b60405180910390f35b61057c600480360381019061057791906145c2565b611f00565b60405161058e9695949392919061464a565b60405180910390f35b6105b160048036038101906105ac91906146c0565b612150565b6040516105be91906140da565b60405180910390f35b6105e160048036038101906105dc9190613b4d565b612199565b6040516105ee91906148e7565b60405180910390f35b610611600480360381019061060c9190614909565b61248e565b60405161061e91906139bf565b60405180910390f35b610641600480360381019061063c9190614949565b6124bd565b60405161064e91906139bf565b60405180910390f35b610671600480360381019061066c9190613dbf565b612551565b005b61068d60048036038101906106889190613aea565b612602565b005b600061069a82612688565b9050919050565b6060600080546106b0906149b8565b80601f01602080910402602001604051908101604052809291908181526020018280546106dc906149b8565b80156107295780601f106106fe57610100808354040283529160200191610729565b820191906000526020600020905b81548152906001019060200180831161070c57829003601f168201915b5050505050905090565b600e6020528060005260406000206000915054906101000a900460ff1681565b600061075e826126e9565b5061076882612771565b9050919050565b610781828261077c6127ae565b6127b6565b5050565b600d6020528060005260406000206000915054906101000a900460ff1681565b81600c600082815260200190815260200160002060003373ffffffffffffffffffffffffffffffffffffffff1673ffffffffffffffffffffffffffffffffffffffff16815260200190815260200160002060009054906101000a900460ff16806108415750610812611c42565b73ffffffffffffffffffffffffffffffffffffffff163373ffffffffffffffffffffffffffffffffffffffff16145b806108ad5750600a600082815260200190815260200160002060040160009054906101000a900473ffffffffffffffffffffffffffffffffffffffff1673ffffffffffffffffffffffffffffffffffffffff163373ffffffffffffffffffffffffffffffffffffffff16145b6108ec576040517f08c379a00000000000000000000000000000000000000000000000000000000081526004016108e390614a5b565b60405180910390fd5b81600a600085815260200190815260200160002060040160146101000a81548160ff02191690836004811115610925576109246140f5565b5b02179055503373ffffffffffffffffffffffffffffffffffffffff16837f20c87456765faacb3da9c91c957c94a6cc03fb795891e03d2799d8484f3fda47846040516109719190614a7b565b60405180910390a3505050565b600073ffffffffffffffffffffffffffffffffffffffff168273ffffffffffffffffffffffffffffffffffffffff16036109f05760006040517f64a0ae920000000000000000000000000000000000000000000000000000000081526004016109e79190613b89565b60405180910390fd5b6000610a0483836109ff6127ae565b6127c8565b90508373ffffffffffffffffffffffffffffffffffffffff168173ffffffffffffffffffffffffffffffffffffffff1614610a7a578382826040517f64283d7b000000000000000000000000000000000000000000000000000000008152600401610a7193929190614a96565b60405180910390fd5b50505050565b610a8861386d565b6000600b60008481526020019081526020016000208054905011610ae1576040517f08c379a0000000000000000000000000000000000000000000000000000000008152600401610ad890614b19565b60405180910390fd5b60006001600b600085815260200190815260200160002080549050610b069190614b68565b9050600b60008481526020019081526020016000208181548110610b2d57610b2c614b9c565b5b90600052602060002090600802016004016040518060800160405290816000820154815260200160018201548152602001600282018054610b6d906149b8565b80601f0160208091040260200160405190810160405280929190818152602001828054610b99906149b8565b8015610be65780601f10610bbb57610100808354040283529160200191610be6565b820191906000526020600020905b815481529060010190602001808311610bc957829003601f168201915b50505050508152602001600382015481525050915050919050565b610c1c83838360405180602001604052806000815250611ec9565b505050565b610c296129e2565b80600d60008473ffffffffffffffffffffffffffffffffffffffff1673ffffffffffffffffffffffffffffffffffffffff16815260200190815260200160002060006101000a81548160ff0219169083151502179055508173ffffffffffffffffffffffffffffffffffffffff167ffb63d576fe2851d4ea1f3f754e8505ead17fcba460d20678cdd2947bf073e5f182604051610cc691906139bf565b60405180910390a25050565b6000610cdd826126e9565b9050919050565b6000610cee6129e2565b600d60008c73ffffffffffffffffffffffffffffffffffffffff1673ffffffffffffffffffffffffffffffffffffffff16815260200190815260200160002060009054906101000a900460ff16610d7a576040517f08c379a0000000000000000000000000000000000000000000000000000000008152600401610d7190614c17565b60405180910390fd5b60006009549050600160096000828254610d949190614c37565b92505081905550610da58c82612a69565b610daf818c612a87565b6040518061012001604052808b81526020018a8152602001898152602001600081526020018d73ffffffffffffffffffffffffffffffffffffffff16815260200160006004811115610e0457610e036140f5565b5b815260200185815260200184815260200160011515815250600a60008381526020019081526020016000206000820151816000019081610e449190614e17565b506020820151816001019081610e5a9190614e17565b50604082015181600201556060820151816003015560808201518160040160006101000a81548173ffffffffffffffffffffffffffffffffffffffff021916908373ffffffffffffffffffffffffffffffffffffffff16021790555060a08201518160040160146101000a81548160ff02191690836004811115610ee157610ee06140f5565b5b021790555060c0820151816005015560e0820151816006019081610f059190614e17565b506101008201518160070160006101000a81548160ff02191690831515021790555090505060006040518060800160405280898152602001888152602001878152602001428152509050600b60008381526020019081526020016000206040518060c0016040528060006007811115610f8157610f806140f5565b5b81526020018f73ffffffffffffffffffffffffffffffffffffffff1681526020016040518060400160405280600c81526020017f43726f7020706c616e746564000000000000000000000000000000000000000081525081526020018b81526020018e815260200183815250908060018154018082558091505060019003906000526020600020906008020160009091909190915060008201518160000160006101000a81548160ff02191690836007811115611041576110406140f5565b5b021790555060208201518160000160016101000a81548173ffffffffffffffffffffffffffffffffffffffff021916908373ffffffffffffffffffffffffffffffffffffffff16021790555060408201518160010190816110a29190614e17565b506060820151816002015560808201518160030190816110c29190614e17565b5060a082015181600401600082015181600001556020820151816001015560408201518160020190816110f59190614e17565b5060608201518160030155505050506001600c600084815260200190815260200160002060008f73ffffffffffffffffffffffffffffffffffffffff1673ffffffffffffffffffffffffffffffffffffffff16815260200190815260200160002060006101000a81548160ff0219169083151502179055508c73ffffffffffffffffffffffffffffffffffffffff16827fa54f35962705f263b914fda7f88d32af7260ca6bf0d6e9c610619e926849aa768d6040516111b49190613a6a565b60405180910390a38c73ffffffffffffffffffffffffffffffffffffffff16827f9507d7255a07d41d94cff221b835c6b8c4e3bc4812148cdf576f6928f01a908b60006040516112049190614ee9565b60405180910390a3817fa7d7153cb853320cae55bf1bdc5c4526cd74ebb8c17bbfe765498d85633452b0898960405161123e929190614f13565b60405180910390a281925050509a9950505050505050505050565b600a60205280600052604060002060009150905080600001805461127c906149b8565b80601f01602080910402602001604051908101604052809291908181526020018280546112a8906149b8565b80156112f55780601f106112ca576101008083540402835291602001916112f5565b820191906000526020600020905b8154815290600101906020018083116112d857829003601f168201915b50505050509080600101805461130a906149b8565b80601f0160208091040260200160405190810160405280929190818152602001828054611336906149b8565b80156113835780601f1061135857610100808354040283529160200191611383565b820191906000526020600020905b81548152906001019060200180831161136657829003601f168201915b5050505050908060020154908060030154908060040160009054906101000a900473ffffffffffffffffffffffffffffffffffffffff16908060040160149054906101000a900460ff16908060050154908060060180546113e3906149b8565b80601f016020809104026020016040519081016040528092919081815260200182805461140f906149b8565b801561145c5780601f106114315761010080835404028352916020019161145c565b820191906000526020600020905b81548152906001019060200180831161143f57829003601f168201915b5050505050908060070160009054906101000a900460ff16905089565b60008073ffffffffffffffffffffffffffffffffffffffff168273ffffffffffffffffffffffffffffffffffffffff16036114ec5760006040517f89c62b640000000000000000000000000000000000000000000000000000000081526004016114e39190613b89565b60405180910390fd5b600360008373ffffffffffffffffffffffffffffffffffffffff1673ffffffffffffffffffffffffffffffffffffffff168152602001908152602001600020549050919050565b61153b613895565b600a60008381526020019081526020016000206040518061012001604052908160008201805461156a906149b8565b80601f0160208091040260200160405190810160405280929190818152602001828054611596906149b8565b80156115e35780601f106115b8576101008083540402835291602001916115e3565b820191906000526020600020905b8154815290600101906020018083116115c657829003601f168201915b505050505081526020016001820180546115fc906149b8565b80601f0160208091040260200160405190810160405280929190818152602001828054611628906149b8565b80156116755780601f1061164a57610100808354040283529160200191611675565b820191906000526020600020905b81548152906001019060200180831161165857829003601f168201915b5050505050815260200160028201548152602001600382015481526020016004820160009054906101000a900473ffffffffffffffffffffffffffffffffffffffff1673ffffffffffffffffffffffffffffffffffffffff1673ffffffffffffffffffffffffffffffffffffffff1681526020016004820160149054906101000a900460ff16600481111561170d5761170c6140f5565b5b600481111561171f5761171e6140f5565b5b81526020016005820154815260200160068201805461173d906149b8565b80601f0160208091040260200160405190810160405280929190818152602001828054611769906149b8565b80156117b65780601f1061178b576101008083540402835291602001916117b6565b820191906000526020600020905b81548152906001019060200180831161179957829003601f168201915b505050505081526020016007820160009054906101000a900460ff1615151515815250509050919050565b6117e96129e2565b6117f36000612ae3565b565b86600c600082815260200190815260200160002060003373ffffffffffffffffffffffffffffffffffffffff1673ffffffffffffffffffffffffffffffffffffffff16815260200190815260200160002060009054906101000a900460ff16806118915750611862611c42565b73ffffffffffffffffffffffffffffffffffffffff163373ffffffffffffffffffffffffffffffffffffffff16145b806118fd5750600a600082815260200190815260200160002060040160009054906101000a900473ffffffffffffffffffffffffffffffffffffffff1673ffffffffffffffffffffffffffffffffffffffff163373ffffffffffffffffffffffffffffffffffffffff16145b61193c576040517f08c379a000000000000000000000000000000000000000000000000000000000815260040161193390614a5b565b60405180910390fd5b600a600089815260200190815260200160002060070160009054906101000a900460ff1661199f576040517f08c379a000000000000000000000000000000000000000000000000000000000815260040161199690614f88565b60405180910390fd5b60006040518060800160405280868152602001858152602001848152602001428152509050600b60008a81526020019081526020016000206040518060c001604052808a60078111156119f5576119f46140f5565b5b81526020013373ffffffffffffffffffffffffffffffffffffffff16815260200189815260200142815260200188815260200183815250908060018154018082558091505060019003906000526020600020906008020160009091909190915060008201518160000160006101000a81548160ff02191690836007811115611a8057611a7f6140f5565b5b021790555060208201518160000160016101000a81548173ffffffffffffffffffffffffffffffffffffffff021916908373ffffffffffffffffffffffffffffffffffffffff1602179055506040820151816001019081611ae19190614e17565b50606082015181600201556080820151816003019081611b019190614e17565b5060a08201518160040160008201518160000155602082015181600101556040820151816002019081611b349190614e17565b50606082015181600301555050505060026007811115611b5757611b566140f5565b5b886007811115611b6a57611b696140f5565b5b148015611b8d57506000600a60008b815260200190815260200160002060030154145b15611bae5742600a60008b8152602001908152602001600020600301819055505b3373ffffffffffffffffffffffffffffffffffffffff16897f9507d7255a07d41d94cff221b835c6b8c4e3bc4812148cdf576f6928f01a908b8a604051611bf59190614ee9565b60405180910390a3887fa7d7153cb853320cae55bf1bdc5c4526cd74ebb8c17bbfe765498d85633452b08686604051611c2f929190614f13565b60405180910390a2505050505050505050565b6000600760009054906101000a900473ffffffffffffffffffffffffffffffffffffffff16905090565b606060018054611c7b906149b8565b80601f0160208091040260200160405190810160405280929190818152602001828054611ca7906149b8565b8015611cf45780601f10611cc957610100808354040283529160200191611cf4565b820191906000526020600020905b815481529060010190602001808311611cd757829003601f168201915b5050505050905090565b611d10611d096127ae565b8383612ba9565b5050565b82600c600082815260200190815260200160002060003373ffffffffffffffffffffffffffffffffffffffff1673ffffffffffffffffffffffffffffffffffffffff16815260200190815260200160002060009054906101000a900460ff1680611db05750611d81611c42565b73ffffffffffffffffffffffffffffffffffffffff163373ffffffffffffffffffffffffffffffffffffffff16145b80611e1c5750600a600082815260200190815260200160002060040160009054906101000a900473ffffffffffffffffffffffffffffffffffffffff1673ffffffffffffffffffffffffffffffffffffffff163373ffffffffffffffffffffffffffffffffffffffff16145b611e5b576040517f08c379a0000000000000000000000000000000000000000000000000000000008152600401611e5290614a5b565b60405180910390fd5b81600c600086815260200190815260200160002060008573ffffffffffffffffffffffffffffffffffffffff1673ffffffffffffffffffffffffffffffffffffffff16815260200190815260200160002060006101000a81548160ff02191690831515021790555050505050565b611ed484848461097e565b611ee8611edf6127ae565b85858585612d18565b50505050565b6060611ef982612ec9565b9050919050565b600b6020528160005260406000208181548110611f1c57600080fd5b9060005260206000209060080201600091509150508060000160009054906101000a900460ff16908060000160019054906101000a900473ffffffffffffffffffffffffffffffffffffffff1690806001018054611f79906149b8565b80601f0160208091040260200160405190810160405280929190818152602001828054611fa5906149b8565b8015611ff25780601f10611fc757610100808354040283529160200191611ff2565b820191906000526020600020905b815481529060010190602001808311611fd557829003601f168201915b50505050509080600201549080600301805461200d906149b8565b80601f0160208091040260200160405190810160405280929190818152602001828054612039906149b8565b80156120865780601f1061205b57610100808354040283529160200191612086565b820191906000526020600020905b81548152906001019060200180831161206957829003601f168201915b5050505050908060040160405180608001604052908160008201548152602001600182015481526020016002820180546120bf906149b8565b80601f01602080910402602001604051908101604052809291908181526020018280546120eb906149b8565b80156121385780601f1061210d57610100808354040283529160200191612138565b820191906000526020600020905b81548152906001019060200180831161211b57829003601f168201915b50505050508152602001600382015481525050905086565b600061215a6129e2565b600060095490506001600960008282546121749190614c37565b925050819055506121858482612a69565b61218f8184612a87565b8091505092915050565b6060600b6000838152602001908152602001600020805480602002602001604051908101604052809291908181526020016000905b8282101561248357838290600052602060002090600802016040518060c00160405290816000820160009054906101000a900460ff166007811115612216576122156140f5565b5b6007811115612228576122276140f5565b5b81526020016000820160019054906101000a900473ffffffffffffffffffffffffffffffffffffffff1673ffffffffffffffffffffffffffffffffffffffff1673ffffffffffffffffffffffffffffffffffffffff168152602001600182018054612292906149b8565b80601f01602080910402602001604051908101604052809291908181526020018280546122be906149b8565b801561230b5780601f106122e05761010080835404028352916020019161230b565b820191906000526020600020905b8154815290600101906020018083116122ee57829003601f168201915b505050505081526020016002820154815260200160038201805461232e906149b8565b80601f016020809104026020016040519081016040528092919081815260200182805461235a906149b8565b80156123a75780601f1061237c576101008083540402835291602001916123a7565b820191906000526020600020905b81548152906001019060200180831161238a57829003601f168201915b505050505081526020016004820160405180608001604052908160008201548152602001600182015481526020016002820180546123e4906149b8565b80601f0160208091040260200160405190810160405280929190818152602001828054612410906149b8565b801561245d5780601f106124325761010080835404028352916020019161245d565b820191906000526020600020905b81548152906001019060200180831161244057829003601f168201915b5050505050815260200160038201548152505081525050815260200190600101906121ce565b505050509050919050565b600c6020528160005260406000206020528060005260406000206000915091509054906101000a900460ff1681565b6000600560008473ffffffffffffffffffffffffffffffffffffffff1673ffffffffffffffffffffffffffffffffffffffff16815260200190815260200160002060008373ffffffffffffffffffffffffffffffffffffffff1673ffffffffffffffffffffffffffffffffffffffff16815260200190815260200160002060009054906101000a900460ff16905092915050565b6125596129e2565b80600e60008473ffffffffffffffffffffffffffffffffffffffff1673ffffffffffffffffffffffffffffffffffffffff16815260200190815260200160002060006101000a81548160ff0219169083151502179055508173ffffffffffffffffffffffffffffffffffffffff167f2bc4eb84cdb1048f40d6792f077f56a5e6c0d5cee9a9c4c5d87694ba7153443c826040516125f691906139bf565b60405180910390a25050565b61260a6129e2565b600073ffffffffffffffffffffffffffffffffffffffff168173ffffffffffffffffffffffffffffffffffffffff160361267c5760006040517f1e4fbdf70000000000000000000000000000000000000000000000000000000081526004016126739190613b89565b60405180910390fd5b61268581612ae3565b50565b6000634906490660e01b7bffffffffffffffffffffffffffffffffffffffffffffffffffffffff1916827bffffffffffffffffffffffffffffffffffffffffffffffffffffffff191614806126e257506126e182612fdc565b5b9050919050565b6000806126f5836130be565b9050600073ffffffffffffffffffffffffffffffffffffffff168173ffffffffffffffffffffffffffffffffffffffff160361276857826040517f7e27328900000000000000000000000000000000000000000000000000000000815260040161275f91906140da565b60405180910390fd5b80915050919050565b60006004600083815260200190815260200160002060009054906101000a900473ffffffffffffffffffffffffffffffffffffffff169050919050565b600033905090565b6127c383838360016130fb565b505050565b6000806127d4846130be565b9050600073ffffffffffffffffffffffffffffffffffffffff168373ffffffffffffffffffffffffffffffffffffffff1614612816576128158184866132c0565b5b600073ffffffffffffffffffffffffffffffffffffffff168173ffffffffffffffffffffffffffffffffffffffff16146128a7576128586000856000806130fb565b6001600360008373ffffffffffffffffffffffffffffffffffffffff1673ffffffffffffffffffffffffffffffffffffffff168152602001908152602001600020600082825403925050819055505b600073ffffffffffffffffffffffffffffffffffffffff168573ffffffffffffffffffffffffffffffffffffffff161461292a576001600360008773ffffffffffffffffffffffffffffffffffffffff1673ffffffffffffffffffffffffffffffffffffffff168152602001908152602001600020600082825401925050819055505b846002600086815260200190815260200160002060006101000a81548173ffffffffffffffffffffffffffffffffffffffff021916908373ffffffffffffffffffffffffffffffffffffffff160217905550838573ffffffffffffffffffffffffffffffffffffffff168273ffffffffffffffffffffffffffffffffffffffff167fddf252ad1be2c89b69c2b068fc378daa952ba7f163c4a11628f55a4df523b3ef60405160405180910390a4809150509392505050565b6129ea6127ae565b73ffffffffffffffffffffffffffffffffffffffff16612a08611c42565b73ffffffffffffffffffffffffffffffffffffffff1614612a6757612a2b6127ae565b6040517f118cdaa7000000000000000000000000000000000000000000000000000000008152600401612a5e9190613b89565b60405180910390fd5b565b612a83828260405180602001604052806000815250613384565b5050565b80600660008481526020019081526020016000209081612aa79190614e17565b507ff8e1a15aba9398e019f0b49df1a4fde98ee17ae345cb5f6b5e2c27f5033e8ce782604051612ad791906140da565b60405180910390a15050565b6000600760009054906101000a900473ffffffffffffffffffffffffffffffffffffffff16905081600760006101000a81548173ffffffffffffffffffffffffffffffffffffffff021916908373ffffffffffffffffffffffffffffffffffffffff1602179055508173ffffffffffffffffffffffffffffffffffffffff168173ffffffffffffffffffffffffffffffffffffffff167f8be0079c531659141344cd1fd0a4f28419497f9722a3daafe3b4186f6b6457e060405160405180910390a35050565b600073ffffffffffffffffffffffffffffffffffffffff168273ffffffffffffffffffffffffffffffffffffffff1603612c1a57816040517f5b08ba18000000000000000000000000000000000000000000000000000000008152600401612c119190613b89565b60405180910390fd5b80600560008573ffffffffffffffffffffffffffffffffffffffff1673ffffffffffffffffffffffffffffffffffffffff16815260200190815260200160002060008473ffffffffffffffffffffffffffffffffffffffff1673ffffffffffffffffffffffffffffffffffffffff16815260200190815260200160002060006101000a81548160ff0219169083151502179055508173ffffffffffffffffffffffffffffffffffffffff168373ffffffffffffffffffffffffffffffffffffffff167f17307eab39ab6107e8899845ad3d59bd9653f200f220920489ca2b5937696c3183604051612d0b91906139bf565b60405180910390a3505050565b60008373ffffffffffffffffffffffffffffffffffffffff163b1115612ec2578273ffffffffffffffffffffffffffffffffffffffff1663150b7a02868685856040518563ffffffff1660e01b8152600401612d779493929190614ffd565b6020604051808303816000875af1925050508015612db357506040513d601f19601f82011682018060405250810190612db0919061505e565b60015b612e37573d8060008114612de3576040519150601f19603f3d011682016040523d82523d6000602084013e612de8565b606091505b506000815103612e2f57836040517f64a0ae92000000000000000000000000000000000000000000000000000000008152600401612e269190613b89565b60405180910390fd5b805160208201fd5b63150b7a0260e01b7bffffffffffffffffffffffffffffffffffffffffffffffffffffffff1916817bffffffffffffffffffffffffffffffffffffffffffffffffffffffff191614612ec057836040517f64a0ae92000000000000000000000000000000000000000000000000000000008152600401612eb79190613b89565b60405180910390fd5b505b5050505050565b6060612ed4826126e9565b506000600660008481526020019081526020016000208054612ef5906149b8565b80601f0160208091040260200160405190810160405280929190818152602001828054612f21906149b8565b8015612f6e5780601f10612f4357610100808354040283529160200191612f6e565b820191906000526020600020905b815481529060010190602001808311612f5157829003601f168201915b505050505090506000612f7f6133a8565b90506000815103612f94578192505050612fd7565b600082511115612fc9578082604051602001612fb19291906150c7565b60405160208183030381529060405292505050612fd7565b612fd2846133bf565b925050505b919050565b60007f80ac58cd000000000000000000000000000000000000000000000000000000007bffffffffffffffffffffffffffffffffffffffffffffffffffffffff1916827bffffffffffffffffffffffffffffffffffffffffffffffffffffffff191614806130a757507f5b5e139f000000000000000000000000000000000000000000000000000000007bffffffffffffffffffffffffffffffffffffffffffffffffffffffff1916827bffffffffffffffffffffffffffffffffffffffffffffffffffffffff1916145b806130b757506130b682613428565b5b9050919050565b60006002600083815260200190815260200160002060009054906101000a900473ffffffffffffffffffffffffffffffffffffffff169050919050565b80806131345750600073ffffffffffffffffffffffffffffffffffffffff168273ffffffffffffffffffffffffffffffffffffffff1614155b15613268576000613144846126e9565b9050600073ffffffffffffffffffffffffffffffffffffffff168373ffffffffffffffffffffffffffffffffffffffff16141580156131af57508273ffffffffffffffffffffffffffffffffffffffff168173ffffffffffffffffffffffffffffffffffffffff1614155b80156131c257506131c081846124bd565b155b1561320457826040517fa9fbf51f0000000000000000000000000000000000000000000000000000000081526004016131fb9190613b89565b60405180910390fd5b811561326657838573ffffffffffffffffffffffffffffffffffffffff168273ffffffffffffffffffffffffffffffffffffffff167f8c5be1e5ebec7d5bd14f71427d1e84f3dd0314c0f7b2291e5b200ac8c7c3b92560405160405180910390a45b505b836004600085815260200190815260200160002060006101000a81548173ffffffffffffffffffffffffffffffffffffffff021916908373ffffffffffffffffffffffffffffffffffffffff16021790555050505050565b6132cb838383613492565b61337f57600073ffffffffffffffffffffffffffffffffffffffff168373ffffffffffffffffffffffffffffffffffffffff160361334057806040517f7e27328900000000000000000000000000000000000000000000000000000000815260040161333791906140da565b60405180910390fd5b81816040517f177e802f0000000000000000000000000000000000000000000000000000000081526004016133769291906150eb565b60405180910390fd5b505050565b61338e8383613553565b6133a36133996127ae565b6000858585612d18565b505050565b606060405180602001604052806000815250905090565b60606133ca826126e9565b5060006133d56133a8565b905060008151116133f55760405180602001604052806000815250613420565b806133ff8461364c565b6040516020016134109291906150c7565b6040516020818303038152906040525b915050919050565b60007f01ffc9a7000000000000000000000000000000000000000000000000000000007bffffffffffffffffffffffffffffffffffffffffffffffffffffffff1916827bffffffffffffffffffffffffffffffffffffffffffffffffffffffff1916149050919050565b60008073ffffffffffffffffffffffffffffffffffffffff168373ffffffffffffffffffffffffffffffffffffffff161415801561354a57508273ffffffffffffffffffffffffffffffffffffffff168473ffffffffffffffffffffffffffffffffffffffff16148061350b575061350a84846124bd565b5b8061354957508273ffffffffffffffffffffffffffffffffffffffff1661353183612771565b73ffffffffffffffffffffffffffffffffffffffff16145b5b90509392505050565b600073ffffffffffffffffffffffffffffffffffffffff168273ffffffffffffffffffffffffffffffffffffffff16036135c55760006040517f64a0ae920000000000000000000000000000000000000000000000000000000081526004016135bc9190613b89565b60405180910390fd5b60006135d3838360006127c8565b9050600073ffffffffffffffffffffffffffffffffffffffff168173ffffffffffffffffffffffffffffffffffffffff16146136475760006040517f73c6ac6e00000000000000000000000000000000000000000000000000000000815260040161363e9190613b89565b60405180910390fd5b505050565b60606000600161365b8461371a565b01905060008167ffffffffffffffff81111561367a57613679613e09565b5b6040519080825280601f01601f1916602001820160405280156136ac5781602001600182028036833780820191505090505b509050600082602083010190505b60011561370f578080600190039150507f3031323334353637383961626364656600000000000000000000000000000000600a86061a8153600a858161370357613702615114565b5b049450600085036136ba575b819350505050919050565b600080600090507a184f03e93ff9f4daa797ed6e38ed64bf6a1f0100000000000000008310613778577a184f03e93ff9f4daa797ed6e38ed64bf6a1f010000000000000000838161376e5761376d615114565b5b0492506040810190505b6d04ee2d6d415b85acef810000000083106137b5576d04ee2d6d415b85acef810000000083816137ab576137aa615114565b5b0492506020810190505b662386f26fc1000083106137e457662386f26fc1000083816137da576137d9615114565b5b0492506010810190505b6305f5e100831061380d576305f5e100838161380357613802615114565b5b0492506008810190505b612710831061383257612710838161382857613827615114565b5b0492506004810190505b60648310613855576064838161384b5761384a615114565b5b0492506002810190505b600a8310613864576001810190505b80915050919050565b6040518060800160405280600081526020016000815260200160608152602001600081525090565b60405180610120016040528060608152602001606081526020016000815260200160008152602001600073ffffffffffffffffffffffffffffffffffffffff168152602001600060048111156138ee576138ed6140f5565b5b815260200160008152602001606081526020016000151581525090565b6000604051905090565b600080fd5b600080fd5b60007fffffffff0000000000000000000000000000000000000000000000000000000082169050919050565b6139548161391f565b811461395f57600080fd5b50565b6000813590506139718161394b565b92915050565b60006020828403121561398d5761398c613915565b5b600061399b84828501613962565b91505092915050565b60008115159050919050565b6139b9816139a4565b82525050565b60006020820190506139d460008301846139b0565b92915050565b600081519050919050565b600082825260208201905092915050565b60005b83811015613a145780820151818401526020810190506139f9565b60008484015250505050565b6000601f19601f8301169050919050565b6000613a3c826139da565b613a4681856139e5565b9350613a568185602086016139f6565b613a5f81613a20565b840191505092915050565b60006020820190508181036000830152613a848184613a31565b905092915050565b600073ffffffffffffffffffffffffffffffffffffffff82169050919050565b6000613ab782613a8c565b9050919050565b613ac781613aac565b8114613ad257600080fd5b50565b600081359050613ae481613abe565b92915050565b600060208284031215613b0057613aff613915565b5b6000613b0e84828501613ad5565b91505092915050565b6000819050919050565b613b2a81613b17565b8114613b3557600080fd5b50565b600081359050613b4781613b21565b92915050565b600060208284031215613b6357613b62613915565b5b6000613b7184828501613b38565b91505092915050565b613b8381613aac565b82525050565b6000602082019050613b9e6000830184613b7a565b92915050565b60008060408385031215613bbb57613bba613915565b5b6000613bc985828601613ad5565b9250506020613bda85828601613b38565b9150509250929050565b60058110613bf157600080fd5b50565b600081359050613c0381613be4565b92915050565b60008060408385031215613c2057613c1f613915565b5b6000613c2e85828601613b38565b9250506020613c3f85828601613bf4565b9150509250929050565b600080600060608486031215613c6257613c61613915565b5b6000613c7086828701613ad5565b9350506020613c8186828701613ad5565b9250506040613c9286828701613b38565b9150509250925092565b6000819050919050565b613caf81613c9c565b82525050565b600082825260208201905092915050565b6000613cd1826139da565b613cdb8185613cb5565b9350613ceb8185602086016139f6565b613cf481613a20565b840191505092915050565b613d0881613b17565b82525050565b6000608083016000830151613d266000860182613ca6565b506020830151613d396020860182613ca6565b5060408301518482036040860152613d518282613cc6565b9150506060830151613d666060860182613cff565b508091505092915050565b60006020820190508181036000830152613d8b8184613d0e565b905092915050565b613d9c816139a4565b8114613da757600080fd5b50565b600081359050613db981613d93565b92915050565b60008060408385031215613dd657613dd5613915565b5b6000613de485828601613ad5565b9250506020613df585828601613daa565b9150509250929050565b600080fd5b600080fd5b7f4e487b7100000000000000000000000000000000000000000000000000000000600052604160045260246000fd5b613e4182613a20565b810181811067ffffffffffffffff82111715613e6057613e5f613e09565b5b80604052505050565b6000613e7361390b565b9050613e7f8282613e38565b919050565b600067ffffffffffffffff821115613e9f57613e9e613e09565b5b613ea882613a20565b9050602081019050919050565b82818337600083830152505050565b6000613ed7613ed284613e84565b613e69565b905082815260208101848484011115613ef357613ef2613e04565b5b613efe848285613eb5565b509392505050565b600082601f830112613f1b57613f1a613dff565b5b8135613f2b848260208601613ec4565b91505092915050565b613f3d81613c9c565b8114613f4857600080fd5b50565b600081359050613f5a81613f34565b92915050565b6000806000806000806000806000806101408b8d031215613f8457613f83613915565b5b6000613f928d828e01613ad5565b9a505060208b013567ffffffffffffffff811115613fb357613fb261391a565b5b613fbf8d828e01613f06565b99505060408b013567ffffffffffffffff811115613fe057613fdf61391a565b5b613fec8d828e01613f06565b98505060608b013567ffffffffffffffff81111561400d5761400c61391a565b5b6140198d828e01613f06565b975050608061402a8d828e01613b38565b96505060a061403b8d828e01613f4b565b95505060c061404c8d828e01613f4b565b94505060e08b013567ffffffffffffffff81111561406d5761406c61391a565b5b6140798d828e01613f06565b93505061010061408b8d828e01613b38565b9250506101208b013567ffffffffffffffff8111156140ad576140ac61391a565b5b6140b98d828e01613f06565b9150509295989b9194979a5092959850565b6140d481613b17565b82525050565b60006020820190506140ef60008301846140cb565b92915050565b7f4e487b7100000000000000000000000000000000000000000000000000000000600052602160045260246000fd5b60058110614135576141346140f5565b5b50565b600081905061414682614124565b919050565b600061415682614138565b9050919050565b6141668161414b565b82525050565b6000610120820190508181036000830152614187818c613a31565b9050818103602083015261419b818b613a31565b90506141aa604083018a6140cb565b6141b760608301896140cb565b6141c46080830188613b7a565b6141d160a083018761415d565b6141de60c08301866140cb565b81810360e08301526141f08185613a31565b90506142006101008301846139b0565b9a9950505050505050505050565b61421781613aac565b82525050565b6142268161414b565b82525050565b614235816139a4565b82525050565b60006101208301600083015184820360008601526142598282613cc6565b915050602083015184820360208601526142738282613cc6565b91505060408301516142886040860182613cff565b50606083015161429b6060860182613cff565b5060808301516142ae608086018261420e565b5060a08301516142c160a086018261421d565b5060c08301516142d460c0860182613cff565b5060e083015184820360e08601526142ec8282613cc6565b91505061010083015161430361010086018261422c565b508091505092915050565b60006020820190508181036000830152614328818461423b565b905092915050565b6008811061433d57600080fd5b50565b60008135905061434f81614330565b92915050565b600080600080600080600060e0888a03121561437457614373613915565b5b60006143828a828b01613b38565b97505060206143938a828b01614340565b965050604088013567ffffffffffffffff8111156143b4576143b361391a565b5b6143c08a828b01613f06565b955050606088013567ffffffffffffffff8111156143e1576143e061391a565b5b6143ed8a828b01613f06565b94505060806143fe8a828b01613f4b565b93505060a061440f8a828b01613f4b565b92505060c088013567ffffffffffffffff8111156144305761442f61391a565b5b61443c8a828b01613f06565b91505092959891949750929550565b60008060006060848603121561446457614463613915565b5b600061447286828701613b38565b935050602061448386828701613ad5565b925050604061449486828701613daa565b9150509250925092565b600067ffffffffffffffff8211156144b9576144b8613e09565b5b6144c282613a20565b9050602081019050919050565b60006144e26144dd8461449e565b613e69565b9050828152602081018484840111156144fe576144fd613e04565b5b614509848285613eb5565b509392505050565b600082601f83011261452657614525613dff565b5b81356145368482602086016144cf565b91505092915050565b6000806000806080858703121561455957614558613915565b5b600061456787828801613ad5565b945050602061457887828801613ad5565b935050604061458987828801613b38565b925050606085013567ffffffffffffffff8111156145aa576145a961391a565b5b6145b687828801614511565b91505092959194509250565b600080604083850312156145d9576145d8613915565b5b60006145e785828601613b38565b92505060206145f885828601613b38565b9150509250929050565b60088110614613576146126140f5565b5b50565b600081905061462482614602565b919050565b600061463482614616565b9050919050565b61464481614629565b82525050565b600060c08201905061465f600083018961463b565b61466c6020830188613b7a565b818103604083015261467e8187613a31565b905061468d60608301866140cb565b818103608083015261469f8185613a31565b905081810360a08301526146b38184613d0e565b9050979650505050505050565b600080604083850312156146d7576146d6613915565b5b60006146e585828601613ad5565b925050602083013567ffffffffffffffff8111156147065761470561391a565b5b61471285828601613f06565b9150509250929050565b600081519050919050565b600082825260208201905092915050565b6000819050602082019050919050565b61475181614629565b82525050565b600060808301600083015161476f6000860182613ca6565b5060208301516147826020860182613ca6565b506040830151848203604086015261479a8282613cc6565b91505060608301516147af6060860182613cff565b508091505092915050565b600060c0830160008301516147d26000860182614748565b5060208301516147e5602086018261420e565b50604083015184820360408601526147fd8282613cc6565b91505060608301516148126060860182613cff565b506080830151848203608086015261482a8282613cc6565b91505060a083015184820360a08601526148448282614757565b9150508091505092915050565b600061485d83836147ba565b905092915050565b6000602082019050919050565b600061487d8261471c565b6148878185614727565b93508360208202850161489985614738565b8060005b858110156148d557848403895281516148b68582614851565b94506148c183614865565b925060208a0199505060018101905061489d565b50829750879550505050505092915050565b600060208201905081810360008301526149018184614872565b905092915050565b600080604083850312156149205761491f613915565b5b600061492e85828601613b38565b925050602061493f85828601613ad5565b9150509250929050565b600080604083850312156149605761495f613915565b5b600061496e85828601613ad5565b925050602061497f85828601613ad5565b9150509250929050565b7f4e487b7100000000000000000000000000000000000000000000000000000000600052602260045260246000fd5b600060028204905060018216806149d057607f821691505b6020821081036149e3576149e2614989565b5b50919050565b7f4e6f7420617574686f72697a656420746f20757064617465207468697320637260008201527f6f70000000000000000000000000000000000000000000000000000000000000602082015250565b6000614a456022836139e5565b9150614a50826149e9565b604082019050919050565b60006020820190508181036000830152614a7481614a38565b9050919050565b6000602082019050614a90600083018461415d565b92915050565b6000606082019050614aab6000830186613b7a565b614ab860208301856140cb565b614ac56040830184613b7a565b949350505050565b7f4e6f20737570706c7920636861696e20686973746f7279000000000000000000600082015250565b6000614b036017836139e5565b9150614b0e82614acd565b602082019050919050565b60006020820190508181036000830152614b3281614af6565b9050919050565b7f4e487b7100000000000000000000000000000000000000000000000000000000600052601160045260246000fd5b6000614b7382613b17565b9150614b7e83613b17565b9250828203905081811115614b9657614b95614b39565b5b92915050565b7f4e487b7100000000000000000000000000000000000000000000000000000000600052603260045260246000fd5b7f4661726d6572206d757374206265207665726966696564000000000000000000600082015250565b6000614c016017836139e5565b9150614c0c82614bcb565b602082019050919050565b60006020820190508181036000830152614c3081614bf4565b9050919050565b6000614c4282613b17565b9150614c4d83613b17565b9250828201905080821115614c6557614c64614b39565b5b92915050565b60008190508160005260206000209050919050565b60006020601f8301049050919050565b600082821b905092915050565b600060088302614ccd7fffffffffffffffffffffffffffffffffffffffffffffffffffffffffffffffff82614c90565b614cd78683614c90565b95508019841693508086168417925050509392505050565b6000819050919050565b6000614d14614d0f614d0a84613b17565b614cef565b613b17565b9050919050565b6000819050919050565b614d2e83614cf9565b614d42614d3a82614d1b565b848454614c9d565b825550505050565b600090565b614d57614d4a565b614d62818484614d25565b505050565b5b81811015614d8657614d7b600082614d4f565b600181019050614d68565b5050565b601f821115614dcb57614d9c81614c6b565b614da584614c80565b81016020851015614db4578190505b614dc8614dc085614c80565b830182614d67565b50505b505050565b600082821c905092915050565b6000614dee60001984600802614dd0565b1980831691505092915050565b6000614e078383614ddd565b9150826002028217905092915050565b614e20826139da565b67ffffffffffffffff811115614e3957614e38613e09565b5b614e4382546149b8565b614e4e828285614d8a565b600060209050601f831160018114614e815760008415614e6f578287015190505b614e798582614dfb565b865550614ee1565b601f198416614e8f86614c6b565b60005b82811015614eb757848901518255600182019150602085019450602081019050614e92565b86831015614ed45784890151614ed0601f891682614ddd565b8355505b6001600288020188555050505b505050505050565b6000602082019050614efe600083018461463b565b92915050565b614f0d81613c9c565b82525050565b6000604082019050614f286000830185614f04565b614f356020830184614f04565b9392505050565b7f43726f70204e4654206973206e6f742061637469766500000000000000000000600082015250565b6000614f726016836139e5565b9150614f7d82614f3c565b602082019050919050565b60006020820190508181036000830152614fa181614f65565b9050919050565b600081519050919050565b600082825260208201905092915050565b6000614fcf82614fa8565b614fd98185614fb3565b9350614fe98185602086016139f6565b614ff281613a20565b840191505092915050565b60006080820190506150126000830187613b7a565b61501f6020830186613b7a565b61502c60408301856140cb565b818103606083015261503e8184614fc4565b905095945050505050565b6000815190506150588161394b565b92915050565b60006020828403121561507457615073613915565b5b600061508284828501615049565b91505092915050565b600081905092915050565b60006150a1826139da565b6150ab818561508b565b93506150bb8185602086016139f6565b80840191505092915050565b60006150d38285615096565b91506150df8284615096565b91508190509392505050565b60006040820190506151006000830185613b7a565b61510d60208301846140cb565b9392505050565b7f4e487b7100000000000000000000000000000000000000000000000000000000600052601260045260246000fdfea2646970667358221220cadd1863be4d468bff08c1c584ef8ec891493b9c1fd75486a79d0fcece474eb364736f6c63430008180033",
  "linkReferences": {},
  "deployedLinkReferences": {}
}